:100000000287F47FD07E071299D72202876AEF75A4
:10001000F005A42431F8E67E0030E7047F01800279
:100020007F0022028D1561009A7B00010100010012
:1000300000010100000100010100010000010001B8
:1000400001000001010001000001010000010001A8
:100050000100000101000100000100010100010098
:100060000001010000010001010001000001000188
:100070000100000101000100000100010100010078
:100080000001010000010001010000010100010068
:100090000001010000010001010001000001000158
:1000A0000100000101000100000101000001000148
:1000B0000100000101000100000100010100010038
:1000C0000001010000010001010000010100010028
:1000D0000001010000010001010001000001000118
:1000E0000100000101000100000100010100010008
:1000F00000010100000100010100010000010001F8
:1001000001000001010001000001010000010001E7
:1001100001000001010001000001000101000100D7
:100120000001010000010001010042AC93271041D1
:10013000AC8B0042AC8C000048A53A0102080101DA
:1001400001010148A532010208010101010141A597
:10015000540041A7860042AC95FFFF602D264DFF5D
:100160008072FF8B98FF7440FF7A5CFF6CDAFF8629
:1001700049FF8C18FF9C87FF8E0CFF2DC3FF9A331D
:10018000FF9B8EFF86DCFFA4D5FFA7E942A12311C8
:100190002242ABCF123442ABCB432142ABCD0BB8A2
:1001A0006EF4469C3C68746D6C3E3C686561643ED0
:1001B0003C6D65746120687474702D657175697625
:1001C0003D22636F6E74656E742D747970652220A4
:1001D000636F6E74656E743D22746578742F6874F5
:1001E0006D6C3B20636861727365743D49534F2D9C
:1001F000383835392D31223E3C7469746C653E4D7A
:100200006F6F6E6C696768743C2F7469746C653EBF
:100210003C7374796C6520747970653D22746578DF
:10022000742F637373223E3C212D2D7464207B66F2
:100230006F6E742D73697A653A20313070743B7D2E
:100240002D2D3E3C2F7374796C653E3C2F686561A3
:10025000643E3C626F647920746F706D617267698F
:100260006E3D22343022206267636F6C6F723D22D4
:1002700023666566656566223E3C7461626C652036
:10028000616C69676E3D2263656E746572222062DF
:1002900067636F6C6F723D222339393939393922DE
:1002A00020626F726465723D2230222063656C6C3F
:1002B00070616464696E673D2231222063656C6CF5
:1002C00073706163696E673D2231222077696474BF
:1002D000683D22343030223E20203C74626F6479C5
:1002E0003E3C74723E2020203C746420616C69673F
:1002F0006E3D2263656E74657222206267636F6C67
:100300006F723D2223663366336633222068656947
:100310006768743D223332222076616C69676E3DD6
:100320002263656E746572223E0920203C666F6E02
:100330007420636F6C6F723D227265642220736952
:100340007A653D222B31223E3C623E4D6F6F6E6CD2
:100350006967687420636F6E666967757261746936
:100360006F6E3C2F623E3C2F666F6E743E3C2F7466
:10037000643E20203C2F74723E20203C74723E204C
:100380002020203C746420616C69676E3D226365A7
:100390006E74657222206267636F6C6F723D2223F8
:1003A000666666666666223E3C62723E20202020BB
:1003B00020203C666F726D20616374696F6E3D2210
:1003C0006D6F6F6E6C696768742E63676922206E4B
:1003D000616D653D22666F726D3122206D657468B6
:1003E0006F643D22706F7374223E202020202020F5
:1003F0003C7461626C65206267636F6C6F723D2252
:10040000233636363636362220626F726465723D88
:100410002230222063656C6C70616464696E673D94
:100420002231222063656C6C73706163696E673D75
:100430002231222077696474683D22333530223EB0
:1004400020202020202020203C74626F64793E3CD4
:1004500074723E202020202020202020203C746424
:10046000206267636F6C6F723D2223666566656507
:1004700066223E3C7461626C6520626F72646572D4
:100480003D2230222063656C6C70616464696E6724
:100490003D2230222063656C6C73706163696E6706
:1004A0003D2230222077696474683D223335302242
:1004B0003E20202020202020202020202020203C02
:1004C00074626F64793E3C74723E202020202020AC
:1004D000202020202020202020203C746420616CDB
:1004E00069676E3D2263656E746572222068656976
:1004F0006768743D223232222077696474683D2235
:10050000313530223E536F757263652049503C2F60
:1005100074643E2020202020202020202020202025
:100520002020203C7464206865696768743D22322D
:1005300037222077696474683D22323030223E3C95
:10054000696E707574206E616D653D2273697022ED
:100550002073697A653D223230222076616C7565A0
:100560003D22243030242220747970653D22746548
:100570007874223E3C2F74643E20202020202020CE
:10058000202020202020203C2F74723E202020207C
:10059000202020202020202020203C74723E20207B
:1005A00020202020202020202020202020203C74DB
:1005B0006420616C69676E3D2263656E74657222AA
:1005C000206865696768743D223232222077696449
:1005D00074683D22313530223E4761746577617918
:1005E0002049503C2F74643E2020202020202020D1
:1005F00020202020202020203C746420686569672A
:1006000068743D223237223E3C696E707574206EEC
:10061000616D653D2267776970222073697A653D57
:10062000223230222076616C75653D2224303124DF
:100630002220747970653D2274657874223E3C2FC7
:1006400074643E20202020202020202020202020F4
:10065000203C2F74723E20202020202020202020AB
:10066000202020203C74723E2020202020202020AA
:1006700020202020202020203C746420616C6967A9
:100680006E3D2263656E74657222206865696768D5
:10069000743D223232222077696474683D223135FC
:1006A00030223E5375626E6574204D61736B3C2F32
:1006B00074643E2020202020202020202020202084
:1006C0002020203C7464206865696768743D22328C
:1006D00037223E3C696E707574206E616D653D22F7
:1006E000736E222073697A653D2232302220766152
:1006F0006C75653D22243032242220747970653D6A
:100700002274657874223E3C2F74643E20202020A1
:10071000202020202020202020203C2F74723E20EA
:10072000202020202020202020202020203C747207
:100730003E2020202020202020202020202020209B
:10074000203C746420616C69676E3D2263656E7441
:10075000657222206865696768743D223232222002
:1007600077696474683D22313530223E444E53200F
:100770005365727665722049503C2F74643E202088
:1007800020202020202020202020202020203C74F9
:1007900064206865696768743D223237223E3C698F
:1007A0006E707574206E616D653D22646E732220DB
:1007B00073697A653D223230222076616C75653D21
:1007C00022243033242220747970653D22746578A8
:1007D00074223E3C2F74643E2020202020202020C4
:1007E0002020202020203C2F74723E20202020201A
:1007F0002020202020202020203C74723E20202019
:10080000202020202020202020202020203C746434
:1008100020616C69676E3D2263656E74657222208B
:100820006865696768743D22323222207769647492
:10083000683D22313530223E4D414320416464728F
:100840006573733C2F74643E2020202020202020DC
:1008500020202020202020203C74642068656967C7
:1008600068743D223237223E3C696E707574206E8A
:10087000616D653D22687761646472222073697AD4
:10088000653D223230222076616C75653D22243030
:1008900034242220747970653D2274657874223E78
:1008A0003C2F74643E202020202020202020202067
:1008B0002020203C2F74723E202020202020202049
:1008C0002020202020203C74723E20202020202048
:1008D000202020202020202020203C746420616CD7
:1008E00069676E3D2263656E746572222068656972
:1008F0006768743D223232222077696474683D2231
:10090000313530223E426F617264206E616D653C0C
:100910002F74643E20202020202020202020202012
:10092000202020203C7464206865696768743D223B
:100930003237223E3C696E707574206E616D653D84
:1009400022626E616D652220747970653D22746546
:100950007874222073697A653D22323022207661D4
:100960006C75653D2224303524223E3C2F74643E54
:1009700020202020202020202020202020203C2F4C
:1009800074723E20202020202020202020202020A3
:10099000203C74723E202020202020202020202077
:1009A00020202020203C746420616C69676E3D2209
:1009B00063656E74657222206865696768743D229C
:1009C0003232222077696474683D22313530223E0C
:1009D00055736520444843503C2F74643E202020CA
:1009E000202020202020202020202020203C746453
:1009F000206865696768743D223237223E3C696E23
:100A0000707574206E616D653D22697364686370F2
:100A10002220243036243D222220747970653D2224
:100A2000636865636B626F78223E3C2F74643E207E
:100A3000202020202020202020202020203C2F7437
:100A4000723E202020202020202020202020202036
:100A500020203C74723E3C746420616C69676E3D7A
:100A60002263656E74657222206865696768743DEB
:100A7000223232222077696474683D223135302277
:100A80003E557365726E616D653C2F74643E202027
:100A900020202020202020202020202020203C74E6
:100AA00064206865696768743D223237223E3C697C
:100AB0006E707574206E616D653D22757365726E22
:100AC000616D65222073697A653D2232302220767D
:100AD000616C75653D22243037242220747970655D
:100AE0003D2274657874223E3C2F74643E202020A1
:100AF00020202020202020202020203C2F74723E07
:100B000020202020202020202020202020203C7475
:100B1000723E202020202020202020202020202065
:100B200020203C746420616C69676E3D2263656EB1
:100B300074657222206865696768743D22323222CA
:100B40002077696474683D22313530223E506173EC
:100B500073776F72643C2F74643E20202020202025
:100B6000202020202020202020203C746420686544
:100B7000696768743D223237223E3C696E70757435
:100B8000206E616D653D2270617373776F726422B0
:100B90002073697A653D223230222076616C75655A
:100BA0003D22243038242220747970653D22706102
:100BB0007373776F7264223E3C2F74643E20202052
:100BC00020202020202020202020203C2F74723E36
:100BD0002020202020202020202020203C2F746254
:100BE0006F64793E3C2F7461626C653E3C2F746487
:100BF0003E20202020202020203C2F74723E2020E8
:100C0000202020203C2F74626F64793E3C2F746159
:100C1000626C653E2020202020203C62723E202015
:100C20002020202009203C696E7075742076616C4C
:100C300075653D224E6574776F726B20436F6E66EB
:100C400069672220747970653D227375626D6974DD
:100C5000223E202020202020203C2F666F726D3EF7
:100C6000202020203C2F74643E20203C2F74723EB4
:100C70003C2F74626F64793E3C2F7461626C653EF8
:100C80003C62723E3C7461626C6520616C69676EA7
:100C90003D2263656E74657222206267636F6C6FBC
:100CA000723D22233939393939392220626F726411
:100CB00065723D2230222063656C6C7061646469EA
:100CC0006E673D2231222063656C6C7370616369CD
:100CD0006E673D2231222077696474683D2234308A
:100CE00030223E20203C74626F64793E3C74723E38
:100CF000202020203C746420616C69676E3D226373
:100D0000656E74657222206267636F6C6F723D223C
:100D10002366336633663322206865696768743DED
:100D2000223332222076616C69676E3D2263656EE4
:100D3000746572223E093C666F6E7420636F6C6F3F
:100D4000723D22726564222073697A653D222B31DF
:100D5000223E3C623E4D6F6F6E6C69676874206125
:100D600070706C69636174696F6E20696E666F3C48
:100D70002F623E3C2F666F6E743E3C2F74643E20A3
:100D8000203C2F74723E20203C74723E2020202094
:100D90003C746420616C69676E3D2263656E7465A6
:100DA0007222206267636F6C6F723D2223666666F3
:100DB000666666223E3C62723E2020202020203C57
:100DC0007461626C65206267636F6C6F723D222391
:100DD0003636363636362220626F726465723D22B0
:100DE00030222063656C6C70616464696E673D22BB
:100DF00031222063656C6C73706163696E673D229C
:100E000031222077696474683D22333530223E20D8
:100E1000202020202020203C74626F64793E3C74A6
:100E2000723E202020202020202020203C7464209E
:100E30006267636F6C6F723D2223666566656566E7
:100E4000223E3C7461626C6520626F726465723D23
:100E50002230222063656C6C70616464696E673D4A
:100E60002230222063656C6C73706163696E673D2C
:100E70002230222077696474683D22333530223E67
:100E800020202020202020202020202020203C74F2
:100E9000626F64793E3C74723E2020202020202026
:100EA0002020202020202020203C746420616C69B8
:100EB000676E3D2263656E7465722220686569679E
:100EC00068743D223232222077696474683D223191
:100ED0003530223E4170706C69636174696F6E20B9
:100EE0006E616D653C2F74643E2020202020202000
:100EF0002020202020202020203C74642068656968
:100F00006768743D223237222077696474683D2215
:100F1000323030223E3C623E243039243C2F623E47
:100F20003C2F74643E2020202020202020202020E0
:100F30002020203C2F74723E2020202020202020C2
:100F40002020202020203C74723E202020202020C1
:100F5000202020202020202020203C746420616C50
:100F600069676E3D2263656E7465722220686569EB
:100F70006768743D223232222077696474683D22AA
:100F8000313530223E4170706C69636174696F6EF7
:100F900020626173652055524C3C2F74643E2020C2
:100FA00020202020202020202020202020203C74D1
:100FB00064206865696768743D223237223E3C626E
:100FC0003E243130243C2F623E3C2F74643E20206E
:100FD0002020202020202020202020203C2F747240
:100FE0003E2020202020202020202020203C2F7464
:100FF000626F64793E3C2F7461626C653E3C2F7475
:10100000643E20202020202020203C2F74723E208F
:1010100020202020203C2F74626F64793E3C2F7486
:1010200061626C653E0920203C62723E20202020D7
:101030003C2F74643E20203C2F74723E3C2F74621F
:101040006F64793E3C2F7461626C653E3C70206138
:101050006C69676E3D2263656E746572223E3C6604
:101060006F6E742073697A653D222B312220636F85
:101070006C6F723D22726564223E243131243C2F14
:10108000666F6E743E3C2F703E3C2F626F64793EFB
:101090003C2F68746D6C3E0060DE561A4854545004
:1010A0002F312E302034303120556E617574686FC9
:1010B00072697A65640D0A5365727665723A206DBD
:1010C0006F6F6E6C696768740D0A5757572D4175BD
:1010D0007468656E7469636174653A20426173690E
:1010E00063207265616C6D3D226D6F6F6E6C696718
:1010F0006874220D0A436F6E74656E742D54797096
:10110000653A20746578742F68746D6C0D0A436FAE
:101110006E6E656374696F6E3A20636C6F73650DF4
:101120000A0D0A3C48544D4C3E3C484541443E3C27
:101130005449544C453E34303120556E61757468C5
:101140006F72697A65643C2F5449544C453E3C2F7C
:10115000484541443E3C424F44593E34303120558D
:101160006E617574686F72697A65643C2F424F4492
:10117000593E3C2F48544D4C3E0060DA581E4854AE
:1011800054502F312E3020343030204261642052B0
:101190006571756573740D0A5365727665723A20D0
:1011A0006D6F6F6E6C696768740D0A436F6E74655E
:1011B0006E742D547970653A20746578742F687454
:1011C0006D6C0D0A436F6E6E656374696F6E3A20C5
:1011D000636C6F73650D0A0D0A3C68746D6C3E3C60
:1011E000686561643E3C7469746C653E496E766105
:1011F0006C696420726571756573743C2F746974D1
:101200006C653E3C2F686561643E3C626F64793E6C
:1012100054686520736572766572207265636569CE
:1012200076656420612072657175657374207468D9
:10123000617420697420636F756C646E2774207507
:101240006E6465727374616E643C2F626F64793E84
:101250003C2F68746D6C3E00608A55904854545021
:101260002F312E3020323030204F4B0D0A53657213
:101270007665723A206D6F6F6E6C696768740D0ADF
:1012800043616368652D436F6E74726F6C3A206EB4
:101290006F2D63616368650D0A507261676D613A15
:1012A000206E6F2D63616368650D0A457870697201
:1012B00065733A20300D0A436F6E74656E742D5459
:1012C0007970653A20746578742F68746D6C0D0AB6
:1012D000436F6E6E656374696F6E3A20636C6F73F3
:1012E000650D0A0D0A00605357CB485454502F31F6
:1012F0002E302033303220466F756E640D0A5365F0
:10130000727665723A206D6F6F6E6C696768740DE6
:101310000A4C6F636174696F6E3A20687474703A36
:101320002F2F25732F0D0A436F6E6E656374696FDF
:101330006E3A20636C6F73650D0A0D0A0060A75743
:1013400024485454502F312E3020343034204E6FE6
:101350007420466F756E640D0A5365727665723A35
:10136000206D6F6F6E6C696768740D0A436F6E74E1
:10137000656E742D547970653A20746578742F68A1
:10138000746D6C0D0A436F6E6E656374696F6E3AAF
:1013900020636C6F73650D0A0D0A3C68746D6C3EBA
:1013A0003C686561643E3C7469746C653E4E6F7464
:1013B00020666F756E643C2F7469746C653E3C2FBB
:1013C000686561643E3C626F64793E506167652088
:1013D0006E6F7420666F756E643C2F626F64793E29
:1013E0003C2F68746D6C3E006051ABF97C24242462
:1013F0007D72737475767778797A7B24242424241B
:1014000024243E3F404142434445464748494A4BD5
:101410004C4D4E4F5051525354555657242424246A
:10142000242458595A5B5C5D5E5F60616263646549
:10143000666768696A6B6C6D6E6F70710000E709B2
:10144000F608DFFA8046E709F208DFFA803E888274
:101450008C83E709F0A3DFFA8032E309F608DFFAAC
:101460008078E309F208DFFA807088828C83E309D0
:10147000F0A3DFFA806489828A83E0A3F608DFFAAA
:10148000805889828A83E0A3F208DFFA804C80D2F8
:1014900080FA80C680D4806980F28033801080A674
:1014A00080EA809A80A880DA80E280CA80338982CC
:1014B0008A83ECFAE493A3C8C582C8CCC583CCF078
:1014C000A3C8C582C8CCC583CCDFE9DEE7800D891F
:1014D000828A83E493A3F608DFF9ECFAA9F0EDFB26
:1014E0002289828A83ECFAE0A3C8C582C8CCC5836E
:1014F000CCF0A3C8C582C8CCC583CCDFEADEE880C7
:10150000DB89828A83E493A3F208DFF980CC88F038
:10151000EF60010E4E60C388F0ED2402B404005069
:10152000B9F582EB2402B4040050AF232345822393
:1015300090148E73BB010689828A83E0225002E7F1
:1015400022BBFE02E32289828A83E49322BB010C40
:10155000E58229F582E5833AF583E0225006E92504
:1015600082F8E622BBFE06E92582F8E222E582291E
:10157000F582E5833AF583E49322BB010689828AEA
:1015800083F0225002F722BBFE01F322F8BB010DCB
:10159000E58229F582E5833AF583E8F0225006E9F1
:1015A0002582C8F622BBFE05E92582C8F222EF8D0E
:1015B000F0A4A8F0CF8CF0A428CE8DF0A42EFE22AB
:1015C000C5F0F8A3E028F0C5F0F8E58215827002B6
:1015D0001583E038F022A3F8E0C5F025F0F0E582AD
:1015E000158270021583E0C838F0E822BB010A8931
:1015F000828A83E0F5F0A3E022500687F009E7191C
:1016000022BBFE07E3F5F009E3192289828A83E40D
:1016100093F5F074019322BB0110E58229F582E570
:10162000833AF583E0F5F0A3E0225009E92582F83A
:1016300086F008E622BBFE0AE92582F8E2F5F0080A
:10164000E222E5832AF583E993F5F0A3E99322BB2F
:10165000010A89828A83F0E5F0A3F0225006F70997
:10166000A7F01922BBFE06F3E5F009F31922F8BB37
:101670000111E58229F582E5833AF583E8F0E5F08A
:10168000A3F0225009E92582C8F608A6F022BBFE85
:1016900009E92582C8F2E5F008F22275F0087582A2
:1016A00000EF2FFFEE33FECD33CDCC33CCC58233EC
:1016B000C5829BED9AEC99E58298400CF582EE9BF1
:1016C000FEED9AFDEC99FC0FD5F0D6E4CEFBE4CD0F
:1016D000FAE4CCF9A88222B800C1B90059BA002DA9
:1016E000EC8BF084CFCECDFCE5F0CBF97818EF2F62
:1016F000FFEE33FEED33FDEC33FCEB33FB10D70391
:10170000994004EB99FB0FD8E5E4F9FA227818EF39
:101710002FFFEE33FEED33FDEC33FCC933C910D798
:10172000059BE99A4007EC9BFCE99AF90FD8E0E4A5
:10173000C9FAE4CCFB2275F010EF2FFFEE33FEED7B
:1017400033FDCC33CCC833C810D7079BEC9AE8994B
:10175000400AED9BFDEC9AFCE899F80FD5F0DAE42D
:10176000CDFBE4CCFAE4C8F922CFF4CFCEF4CECD51
:10177000F4CDCCF4CC22EB9FF5F0EA9E42F0E99D4B
:1017800042F0E89C45F022E8600FECC313FCED1337
:10179000FDEE13FEEF13FFD8F122E8600FEFC33325
:1017A000FFEE33FEED33FDEC33FCD8F122BB010735
:1017B00089828A83021D5F5005E9F8021D53BBFE32
:1017C00005E9F8021D6B89828A83021D77BB010738
:1017D00089828A830218075005E9F8021DBDBBFE05
:1017E00005E9F8021DC922BB010789828A83021D0F
:1017F000945005E9F8021D87BBFE05E9F8021DA01B
:1018000089828A83021DADECF0A3EDF0A3EEF0A374
:10181000EFF022A8828583F0D083D08212182A129A
:10182000182A12182A12182AE473E493A3C583C550
:10183000F0C583C8C582C8F0A3C583C5F0C583C8F9
:10184000C582C822A42582F582E5F03583F583227E
:10185000BB010789828A83021DE75005E9F8021D52
:10186000D5BBFE05E9F8021E2789828A83021E394C
:10187000BB011A89828A83D0F0D0E0F8D0E0F9D099
:10188000E0FAD0E0FBE8C0E0C0F0021E1E5016E90E
:10189000F8D083D082D0E0F9D0E0FAD0E0FBC0826B
:1018A000C083021DDEBBFE16E9F8D083D082D0E0F3
:1018B000F9D0E0FAD0E0FBC082C083021E3022D013
:1018C00083D082F8E4937012740193700DA3A393F4
:1018D000F8740193F5828883E4737402936860EF6F
:1018E000A3A3A380DF8A838982E473E3F5F009E28E
:1018F00008B5F06D606B80F3E3F5F009E608B5F02C
:1019000060605E80F387F009E608B5F054605280AD
:10191000F487F009E208B5F048604680F488828CCC
:101920008387F009E0A3B5F038603680F488828CB4
:101930008387F009E493A3B5F027602580F38882BC
:101940008C83E3F5F009E0A3B5F016601480F3880A
:10195000828C83E3F5F009E493A3B5F00460028080
:10196000F2021A16808580E7808E80D2803C801536
:10197000806C807E809B80B5808B80A1804F807042
:10198000803A021A2289828A83ECFAE493F5F0A362
:10199000C8C582C8CCC583CCE493A3C8C582C8CCD3
:1019A000C583CCB5F070606E80E189828A83E49350
:1019B000F5F0A3E208B5F05E605C80F289828A836C
:1019C000E0F5F0A3E608B5F04D604B80F389828A1C
:1019D00083E0F5F0A3E208B5F03C603A80F3898239
:1019E0008A83E493F5F0A3E608B5F02A602880F234
:1019F000805389828A83ECFAE493F5F0A3C8C58208
:101A0000C8CCC583CCE0A3C8C582C8CCC583CCB53F
:101A1000F004600280E27FFFB5F0020F2240027FF7
:101A2000012289828A83ECFAE0F5F0A3C8C582C856
:101A3000CCC583CCE0A3C8C582C8CCC583CCB5F0E7
:101A4000D560D380E389828A83ECFAE0F5F0A3C8FD
:101A5000C582C8CCC583CCE493A3C8C582C8CCC515
:101A600083CCB5F0B160AF80E288F0ED2402B4041D
:101A70000050A3F582EB2402B404005099232345BF
:101A8000822390196473E709F60870FA8046E70923
:101A9000F20870FA803E88828C83E709F0A370FA1E
:101AA000807EE309F60870FA8076E309F20870FA9E
:101AB000806E88828C83E309F0A370FA8062898249
:101AC0008A83E0A3F60870FA805689828A83E0A3AD
:101AD000F20870FA804A80D280FA80C680D480658D
:101AE00080F28031801080A680EA809A80A880DA17
:101AF00080E280CA803189828A83ECFAE493A3C8A9
:101B0000C582C8CCC583CCF0A3C8C582C8CCC58368
:101B1000CC70E9800D89828A83E493A3F60870F97A
:101B2000ECFAA9F0EDFB2289828A83ECFAE0A3C8E3
:101B3000C582C8CCC583CCF0A3C8C582C8CCC58338
:101B4000CC70EA80DD89828A83E493A3F20870F97D
:101B500080CE88F0ED2402B4040050C4F582EB245A
:101B600002B4040050BA2323458223901AD673E3AB
:101B7000F5F009E208B5F06BDFF58067E3F5F009F1
:101B8000E608B5F05EDFF5805A87F009E608B5F0A3
:101B900052DFF6804E87F009E208B5F046DFF680A6
:101BA0004288828C8387F009E0A3B5F036DFF680A7
:101BB0003288828C8387F009E493A3B5F025DFF5A2
:101BC000802188828C83E3F5F009E0A3B5F014DF6F
:101BD000F5801088828C83E3F5F009E493A3B5F0D7
:101BE00002DFF4021C9E808780E9809080D4803ED2
:101BF0008015806E807E809D80B7808D80A380510F
:101C00008074803C021CAA89828A83ECFAE493F5F2
:101C1000F0A3C8C582C8CCC583CCE493A3C8C58251
:101C2000C8CCC583CCB5F076DFE3DEE18070898275
:101C30008A83E493F5F0A3E208B5F062DFF4805EF6
:101C400089828A83E0F5F0A3E608B5F051DFF580DC
:101C50004D89828A83E0F5F0A3E208B5F040DFF514
:101C6000803C89828A83E493F5F0A3E608B5F02EE0
:101C7000DFF4802A8002805789828A83ECFAE49319
:101C8000F5F0A3C8C582C8CCC583CCE0A3C8C58283
:101C9000C8CCC583CCB5F006DFE4DEE280007FFF70
:101CA000B5F0020F2240027F012289828A83ECFA7A
:101CB000E0F5F0A3C8C582C8CCC583CCE0A3C8C5F5
:101CC00082C8CCC583CCB5F0D5DFE5DEE380CF8913
:101CD000828A83ECFAE0F5F0A3C8C582C8CCC5833C
:101CE000CCE493A3C8C582C8CCC583CCB5F0AFDF24
:101CF000E4DEE280A988F0EF60010E4E60ABED24D7
:101D000002B404005098F582EB2402B40400508E13
:101D10002323458223901BE673EF4E6012EF600190
:101D20000EEDBB010B89828A83F0A3DFFCDEFA2271
:101D300089F05007F709DFFCA9F022BBFEFCF3098C
:101D4000DFFCA9F022C3E49FFFE49EFEE49DFDE4D6
:101D50009CFC22E6FC08E6FD08E6FE08E6FF22E021
:101D6000FCA3E0FDA3E0FEA3E0FF22E2FC08E2FD0D
:101D700008E2FE08E2FF22E493FC740193FD740282
:101D800093FE740393FF22E6FB08E6F908E6FA08DF
:101D9000E6CBF822E0F8A3E0F9A3E0FAA3E0FB2207
:101DA000E2FB08E2F908E2FA08E2CBF822E493F851
:101DB000740193F9740293FA740393FB22ECF6080E
:101DC000EDF608EEF608EFF622ECF208EDF208EE7A
:101DD000F208EFF222E6FB08E6FA08E6F922EBF653
:101DE00008EAF608E9F622E0FBA3E0FAA3E0F9220C
:101DF000F8E0FBA3A3E0F925F0F0E582158270027C
:101E00001583E0FA38F022F8E0FBA3A3E025F0F90F
:101E1000F0E582158270021583E038FAF022EBF0CB
:101E2000A3EAF0A3E9F022E2FB08E2FA08E2F922D1
:101E3000EBF208EAF208E9F222E493FB740193FA68
:101E4000740293F92212AD9E909C99EBF0A3EAF0F4
:101E5000A3E9F07F0212A678909B92EEF0A3EFF038
:101E6000D39400EE94104009909B927410F0A3E478
:101E7000F07B017A7A797B909B92E0FFA3E0909CC3
:101E8000A2CFF0A3EFF07F02128C98909B92EEF01D
:101E9000A3EFF0909B92E0FEA3E0247BF582747A9E
:101EA0003EF583E4F07F0212A678D3EF9400EE941F
:101EB00000400E7F0212A678AC06AD077F02129F8B
:101EC000F5909B7B7401F0A3747AF0A3747BF0E42B
:101ED000909B94F0A3F0A3F0A3F0F9909B8DC9F030
:101EE000A3F0A3E9F0909B8AE4F0A3F0A3F0F990AB
:101EF0009B87C9F0A3F0A3E9F0E4909B90F0A3F0D6
:101F0000909C9CF0A3F0F99056F8C9F0A302249895
:101F1000909B7BA3E0FAA3E0C3947BFFEA947AFE54
:101F2000D3909B93E09F909B92E09E500302249F4E
:101F3000909B7BE0FBA3A3E0F9121534700302240D
:101F40009F7D0D12AB03909B7EEBF0A3EAF0A3E91B
:101F5000F04A4B70030224D0909B7EE0FBA3E0FA92
:101F6000A3E0F990000112154D640A60030224D029
:101F7000909B7BE0FBA3E0FAA3E0F9C003C002C0A2
:101F800001A3E0FBA3E0FAA3E0F9D082D083D0E084
:101F90006B7008E965827003EA65837027909B90F7
:101FA000E0700302249F909B7BE0FBA3E0FAA3E098
:101FB0002402F9E43AFA909B8DEBF0A3EAF0A3E94E
:101FC000F002249F909B7EE0FBA3E0FAA3E0F9E4FB
:101FD00012157A909B95E004F07006909B94E004B3
:101FE000F0909CD474FFF0A3745AF0A37452F09054
:101FF0009B7BE0FBA3E0FAA3E0F9127D81C003C064
:1020000002C001909B7BE0FBA3E0FAA3E0F9D08241
:10201000D083D0E06B7008E965827003EA65836065
:1020200043909CD474FFF0A3745AF0A37457F090BB
:102030009B7BE0FBA3E0FAA3E0F9127D81C003C023
:1020400002C001909B7BE0FBA3E0FAA3E0F9D08201
:10205000D083D0E06B7008E965827003EA65836025
:1020600003022289909B94E07004A3E06401600362
:102070000224D0909CD474FFF0A3745AF0A3745738
:10208000F0909B7BE0FBA3E0FAA3E0F9127D81C016
:1020900003C002C001909B7BE0FBA3E0FAA3E0F940
:1020A000D082D083D0E06B7008E965827003EA6566
:1020B000837005909B9004F0909B90E07BFF7006EE
:1020C0007A5A795280047A5A795712AC63909B7B82
:1020D000E0FBA3E0FAA3E02FF9EA3EFA909B81EB44
:1020E000F0A3EAF0A3E9F07D2012AB03909B84EB10
:1020F000F0A3EAF0A3E9F04A4B70030224D0909BCE
:1021000084E0FBA3E0FAA3E02401F9E43AFA909C0E
:10211000D474FFF0A3745AF0A3745DF0127D81C0F3
:1021200003C002C001909B84E0FBA3E0FAA3E0247B
:1021300001F9E43AFAD082D083D0E06B7008E96507
:10214000827003EA658360030224D0909B84E0FBE5
:10215000A3E0FAA3E0F9E412157A909B81E0FBA3D7
:10216000E0FAA3E0F97D3F12AB03909B84EBF0A370
:10217000EAF0A3E9F04A4B6033909B90E0600302E1
:1021800024D0909B84E0FBA3E0FAA3E0F9E41215CD
:102190007A909B84E0FBA3E0FAA3E02401F9E43AFF
:1021A000FA909B8DEBF0A3EAF0A3E9F0909B90E00E
:1021B000705C909B81E0FBA3E0FAA3E0F8AC02AD79
:1021C000037BFF7A5A7963121A69EF6036909B811C
:1021D000E0FBA3E0FAA3E0F8AC02AD037BFF7A5A80
:1021E0007965121A69EF601B909B81E0FBA3E0FA0E
:1021F000A3E0F8AC02AD037BFF7A5A7971121A6939
:10220000EF700B909B96E4F0A304F0022481909B66
:1022100090E07026909B81E0FBA3E0FAA3E0F8AC8D
:1022200002AD037BFF7A5A797C121A69EF700B902A
:102230009B96F0A37402F0022481909B81E0FBA3A3
:10224000E0FAA3E0F8AC02AD037BFF7A5A79811281
:102250001A69EF700B909B96F0A37403F00224812F
:10226000909B81E0FBA3E0FAA3E0F8AC02AD037B16
:10227000FF7A5A7990121A69EF700B909B96F0A32F
:102280007404F002248102A775909CD474FFF0A31B
:10229000745AF0A37499F0909B7BE0FBA3E0FAA33F
:1022A000E0F9127D81C003C002C001909B7BE0FB7E
:1022B000A3E0FAA3E0F9D082D083D0E06B7008E904
:1022C00065827003EA658360030223637BFF7A5AA9
:1022D000799912AC63909B7BE0FBA3E0FAA3E02F1B
:1022E000F9EA3EFA909B81EBF0A3EAF0A3E9F090C3
:1022F0009B81E0F9A3E0FAA3E0909CA1C9F0A3EAD6
:10230000F0A3E9F0A37401F0A3E4F07B017A9B79D8
:1023100098126A287B017A9B79987D3A12AB0390D8
:102320009B84EBF0A3EAF0A3E9F04A4B700302248C
:10233000D0909B84E0FBA3E0FAA3E0F9E412157AC5
:10234000909B8704F0A3749BF0A37498F0909B84F7
:10235000E0FBA3E0FAA3E02401F9E43AFA909B8AB7
:10236000022479909B90E06023909B7BE0FBA3E0AC
:10237000FAA3E0F8AC02AD037BFF7A5A79AF121AE8
:1023800069EF7008909B9104F0022481909B90E08B
:10239000700302241E909CD474FFF0A3745AF0A31F
:1023A00074DFF0909B7BE0FBA3E0FAA3E0F9127DE1
:1023B00081C003C002C001909B7BE0FBA3E0FAA3B5
:1023C000E0F9D082D083D0E06B7008E965827003B9
:1023D000EA658370497BFF7A5A79DF12AC63909B80
:1023E0007BE0FBA3E0FAA3E02FF9EA3EFA909B81A1
:1023F000EBF0A3EAF0A3E9F0909CA174FFF0A374C2
:102400005AF0A374F0F0A37401F0A3749CF0A374C9
:102410009CF0123C8BEF64014E60660224D0909CCD
:10242000D474FFF0A3745AF0A374F3F0909B7BE094
:10243000FBA3E0FAA3E0F9127D81C003C002C00152
:10244000909B7BE0FBA3E0FAA3E0F9D082D083D09D
:10245000E06B7008E965827003EA658370237BFF97
:102460007A5A79F312AC63909B7BE0FBA3E0FAA36A
:10247000E02FF9EA3EFA9056F8EBF0A3EAF0A3E970
:10248000F0909B7EE0FBA3E0FAA3E02402F9E43A9B
:10249000FA909B7BEBF0A3EAF0A3E9F0021F109007
:1024A0009B90E0602EA3E070028025909B8DE0FB66
:1024B000A3E0FAA3E0F9EA494B6015909B8DA3A332
:1024C000E012AC63909C9CE06E7003A3E06F60032D
:1024D00002A727909B96E07002A3E070030225A953
:1024E000909C99E0FBA3E0FAA3E02419F9E43AFAFE
:1024F000C003C002909B87E0FBA3E0FAA3E0F8AC26
:1025000002AD03D002D003121A69EF702D909C998E
:10251000E0FBA3E0FAA3E0245AF9E43AFAC003C0CE
:1025200002909B8AE0FBA3E0FAA3E0F8AC02AD03C3
:10253000D002D003121A69EF600302A74E909B9657
:10254000E07004A3E06401700512A535805E909BE5
:1025500096E07004A3E06402700512A077804D90AD
:102560009B96E07004A3E064037010909B8DE0FBE9
:10257000A3E0FAA3E0F91238B18029909B96E070AD
:1025800004A3E064047022909B8DE0FBA3E0FAA317
:10259000E0F912ADBA78FA7C797D017BFF7A5A793D
:1025A000FA121B52127984800312A7757E007F01F4
:1025B00022909B8DEFF0A3EDF0E4909B93F0A3F0BD
:1025C0007E027F24FD7B017AA57962121D1990A5F8
:1025D000627401F0A3F0A37406F0E4A3F090A55E8A
:1025E000E0FCA3E0FDA3E0FEA3E0FF90A5661218C7
:1025F00007E490A56AF0A3F0A37480F0A3E4F012BE
:10260000AD9EE92403F9E43AFA787E7CA57D017E4B
:10261000007F0612150E909B93E475F0011215D6FB
:10262000FE744E25F0F58274A63EF5837463F09037
:102630009B93E475F0011215D6FE744E25F0F582D9
:1026400074A63EF5837482F0909B93E475F00112BA
:1026500015D6FE744E25F0F58274A63EF5837453AC
:10266000F0909B93E475F0011215D6FE744E25F0A0
:10267000F58274A63EF5837463F0909B93E475F045
:10268000011215D6FE744E25F0F58274A63EF58330
:102690007435F0909B93E475F0011215D6FE744EDC
:1026A00025F0F58274A63EF5837401F0909B93E4C7
:1026B00075F0011215D6FE744E25F0F58274A63E13
:1026C000F5837403F0909B93E475F0011215D6FE28
:1026D000744E25F0F58274A63EF583743DF0909B10
:1026E00093E475F0011215D6FE744E25F0F5827450
:1026F000A63EF5837407F0909B93E475F0011215E4
:10270000D6FE744E25F0F58274A63EF5837401F072
:1027100012AD9EE92403F9E43AFAC001909B93E0DC
:10272000FEA3E0244EF974A63EA801FC7D01D00171
:102730007E007F0612150E909B94E02406F0909B7D
:1027400093E03400F0E475F0011215D6FE744E25C6
:10275000F0F58274A63EF5837432F0909B93E47595
:10276000F0011215D6FE744E25F0F58274A63EF5E2
:10277000837404F0909B8EE060087B017AA5795AFF
:10278000800A12AD9EE92409F9E43AFAC003C002B6
:10279000C001909B93E0FEA3E0244EF974A63EA8EE
:1027A00001FC7D01D001D002D0037E007F04121510
:1027B0000E909B94E02404F0909B93E03400F0E4AE
:1027C00075F0011215D6FE744E25F0F58274A63E02
:1027D000F5837436F0909B93E475F0011215D6FEE4
:1027E000744E25F0F58274A63EF5837404F0909B38
:1027F0008EE07B0160067AA5792580047AA7798727
:10280000C003C002C001909B93E0FEA3E0244EF9F8
:1028100074A63EA801FC7D01D001D002D0037E0049
:102820007F0412150E909B94E02404F0909B93E09B
:102830003400F0E475F0011215D6FE744E25F0F563
:102840008274A63EF583740CF0909B93E475F001BE
:102850001215D6FE744E25F0F58274A63EF58374EB
:102860000EF0909B93E0FEA3E0244EF974A63EA8E0
:1028700001FC7D017B017AA579467E007F0E121551
:102880000E909B94E0240EF0909B93E03400F0E4D3
:1028900075F0011215D6FE744E25F0F58274A63E31
:1028A000F5837437F0909B93E475F0011215D6FE12
:1028B000744E25F0F58274A63EF5837405F0909B66
:1028C00093E475F0011215D6FE744E25F0F582746E
:1028D000A63EF5837401F0909B93E475F001121508
:1028E000D6FE744E25F0F58274A63EF5837403F08F
:1028F000909B93E475F0011215D6FE744E25F0F509
:102900008274A63EF5837406F0909B93E475F00103
:102910001215D6FE744E25F0F58274A63EF583742A
:102920003AF0909B93E475F0011215D6FE744E2593
:10293000F0F58274A63EF583743BF0909B93E475AA
:10294000F0011215D6FE744E25F0F58274A63EF500
:102950008374FFF090A78FE4F0A37443F0909B8EF4
:10296000E06015788F7C9B7D017B017AA579257EBF
:10297000007F0412150E800F7E007F047DFF7B0117
:102980007A9B798F121D19909B8DE0FF909CFA74B1
:1029900002F0A37428F0A37401F0A3749BF0A37455
:1029A0008FF090A78FE0FDA3E0909CFFCDF0A3ED0A
:1029B000F074FFA3F0A3F07B017AA579620265B9F8
:1029C000909D2CEFF0A3EBF0A3EAF0A3E9F012AD99
:1029D0009E909D30EBF0A3EAF0A3E9F0A3E4F0A30E
:1029E000F0A3F0909D2DE0FBA3E0FAA3E0F99000A6
:1029F00080E412158CE412157A909D2CE0B40C0042
:102A00004003022D5D902A0CF8282873022A300218
:102A10002A3E022A4C022A5A022A76022B58022BFC
:102A200066022B94022BBE022BE8022C24022D40BE
:102A3000909D30E0FBA3E0FAA3E024098028909D5C
:102A400030E0FBA3E0FAA3E02411801A909D30E06F
:102A5000FBA3E0FAA3E0240D800C909D30E0FBA3E3
:102A6000E0FAA3E02415F9E43AFAA3EBF0A3EAF0C4
:102A7000A3E9F0022D5D909D30E0FBA3E0FAA3E016
:102A80002403F9E43AFAA3EBF0A3EAF0A3E9F0E4B3
:102A9000909D37F0909D36F0909D36E0FFC39406F0
:102AA0004003022B3D909D33E0FBA3E0FAA3E0F945
:102AB0008F8275830012154DC4540FFF12AD2F90F5
:102AC0009D2DE0FBA3E0FAA3E0F9909D37E0FE0422
:102AD000F08E82758300EF12158C909D33E0FBA37E
:102AE000E0FAA3E0F9A3E0F58275830012154D54D6
:102AF0000FFF12AD2F909D2DE0FBA3E0FAA3E0F9AC
:102B0000909D37E0FE04F08E82758300EF12158CE5
:102B1000909D36E06405601C909D2DE0FBA3E0FADB
:102B2000A3E0F9909D37E0FF04F08F827583007475
:102B30003A12158C909D36E004F0022A98909D2D53
:102B4000E0FBA3E0FAA3E0F9909D37E0F5827583FE
:102B500000E412158C022D1B909D30E0FBA3E0FADF
:102B6000A3E0249B803A909D30E0FBA3E0FAA3E031
:102B7000F990000212154D6003022D5D909D2DE02D
:102B8000FBA3E0FAA3E0F8AC02AD037BFF7A5A792D
:102B900012022D3B909D30E0FBA3E0FAA3E0241944
:102BA000F9E43AFAC003C002909D2DE0FBA3E0FADD
:102BB000A3E0F8AC02AD03D002D003022D3B909D00
:102BC00030E0FBA3E0FAA3E0245AF9E43AFAC003A8
:102BD000C002909D2DE0FBA3E0FAA3E0F8AC02ADAB
:102BE00003D002D003022D3B12AC37EF4E601D1212
:102BF000AC4EC003C002909D2DE0FBA3E0FAA3E021
:102C0000F8AC02AD03D002D003022D3B909D2DE025
:102C1000FBA3E0FAA3E0F8AC02AD037BFF7A5A799C
:102C20001A022D3B12AC37EF4E7003022D26909DF9
:102C300030E0FBA3E0FAA3E02409F9E43AFAA3EBBD
:102C4000F0A3EAF0A3E9F09056F8E0FBA3E0FAA3C2
:102C5000E0F9EA494B706B909D4B74FFF0A37459F7
:102C6000F0A37437F0909D33E0FBA3E0FAA3E0F902
:102C7000121534FF909D4EE4F0A3EFF09000011286
:102C8000154DFF909D50E4F0A3EFF0900002121557
:102C90004DFF909D52E4F0A3EFF090000312154D0C
:102CA000FF909D54E4F0A3EFF07B017A9D793812F8
:102CB00035B1909D337401F0A3749DF0A37438F086
:102CC00080159056F8E0F9A3E0FAA3E0909D33C98F
:102CD000F0A3EAF0A3E9F0909D4B74FFF0A3745ABF
:102CE000F0A37428F0909D33E0F9A3E0FAA3E090FC
:102CF0009D4EC9F0A3EAF0A3E9F0909D33E0F9A35B
:102D0000A3E0909D51C9F0A3EAF0A3E9F0909D2DB6
:102D1000E0FBA3E0FAA3E0F91235B1909D33E4F0B3
:102D2000A3F0A3F08037909D2DE0FBA3E0FAA3E091
:102D3000F8AC02AD037BFF7A5A791A121B52801D40
:102D4000909D2DE0FBA3E0FAA3E0F8AC02AD037B7D
:102D5000017A7979FA121B52E49079FAF0909D3356
:102D6000E0FBA3E0FAA3E0F9EA494B6055909D4BE4
:102D700074FFF0A37459F0A37437F0121534FF9068
:102D80009D4EE4F0A3EFF090000112154DFF909DD1
:102D900050E4F0A3EFF090000212154DFF909D5209
:102DA000E4F0A3EFF090000312154DFF909D54E462
:102DB000F0A3EFF0909D2DE0FBA3E0FAA3E0F91261
:102DC00035B122909B7F7402F0909B8DE4F0A37448
:102DD00050F0909CD47401F0A3749BF0A3747EF027
:102DE000A37401F0A3749BF0A3747BF0A37401F0AF
:102DF000A3749CF0A374CFF07B017A247924129100
:102E000091EF64014E7003FEFF22909B7EE024034D
:102E1000F0909B7BE0FBA3E0FAA3E0F912AC63D354
:102E2000EF9440EE648094814009909B7F7405F09C
:102E300002317F788F7C9B7D01909B7BE0FBA3E040
:102E4000FAA3E0F9121B52909CD474FFF0A3747F94
:102E5000F0A374B8F07B017A9B798F127D817401A5
:102E6000909B8F6B7008E965827003EA658360034D
:102E700002317F7BFF7A7F79B812AC63748F2FF9B0
:102E8000749B3EFA7B01909B80EBF0A3EAF0A3E9F0
:102E9000F012AC63EF4E700302317F909B80E0F93B
:102EA000A3E0FAA3E0909B86C9F0A3EAF0A3E9F0BF
:102EB000909B80E0FBA3A3E0F912AC63EF24FFFF3B
:102EC000EE34FFFE909B80E0FBA3E0FAA3E0F98FD5
:102ED000828E8312154DB42F1E12AC63EF24FFFFB8
:102EE000EE34FFFE909B80E0FBA3E0FAA3E0F98FB5
:102EF000828E83E412158C909CD474FFF0A3747FAF
:102F0000F0A374C0F0909B80E0FBA3E0FAA3E0F98B
:102F1000127D81909B83EBF0A3EAF0A3E9F04A4B8A
:102F20006014909B83E0FBA3E475F0011215D6A911
:102F3000F0FAE412157A909CD474FFF0A3747FF039
:102F4000A374C2F0909B80E0FBA3E0FAA3E0F91227
:102F50007D81909B80EBF0A3EAF0A3E9F04A4B70EF
:102F600003023009909B80E0FBA3E475F001121589
:102F7000D6A9F0FAE412157A909B80E0FBA3E0FA60
:102F8000A3E0F912AC63EF4E700302317F909B8097
:102F9000E0FBA3E0FAA3E0F912AC63D3EF9405EEF3
:102FA00064809480400302317FE4909B8DF0A3F015
:102FB000909B80E0FBA3E0FAA3E0F9121534FF60D8
:102FC0004812AD3F400302317F909B80E0FBA3E0BD
:102FD000FAA3E0F9121534FB3395E0FA909B8DE0EB
:102FE000FEA3E0FF7C007D0A1215AEEF2BFFEE3A48
:102FF000CF24D0CF34FF909B8DF0A3EFF0909B8136
:10300000E475F0011215C080A7909B86E0F9A3E05B
:10301000FAA3E0909CD5C9F0A3EAF0A3E9F0909C54
:10302000CFE0FFA3E0909CD8CFF0A3EFF07B017A34
:103030009B79897F01125B21EF7008909B7F04F0E0
:1030400002317F909B7EE0FF7B017A9B7989909B88
:103050008DE0FDA3E0909CD5CDF0A3EDF074FFA32F
:10306000F0A3F01276F4EF7009909B7F7403F002E6
:10307000317F7BFF7A7F79C4E4FF12A92A909B8677
:10308000E0FBA3E0FAA3E0F9E4FF12A92A909D4B2C
:1030900074FFF0A3747FF0A374D5F0909B89E09047
:1030A0009D4EF0909B8AE0909D4FF0909B8BE0901E
:1030B0009D50F0909B8CE0909D51F07B017A267999
:1030C000241235B17B017A2679247F0112A92A9036
:1030D0009D4B74FFF0A3747FF0A374EEF0909B837C
:1030E000E0FBA3E0FAA3E0F9EA494B6007121534CC
:1030F000600280067BFF7A807971909D4EEBF0A391
:10310000EAF0A3E9F0909B86E0F9A3E0FAA3E0904F
:103110009D51C9F0A3EAF0A3E9F07B017A24792458
:103120001235B17B017A24792412AC63909CD5EEE0
:10313000F0A3EFF0909B7EE0FF7B017A247924904E
:103140009CCFE0FDA3E0909CD7CDF0A3EDF01268FA
:10315000B6C006C0077B017A24792412AC63D0057F
:10316000D004ED6F7002EC6E6010909B7EE0FF1259
:10317000ADAB909B7F7404F08005E4909B7FF07B67
:10318000017A247924909B7FE0FD12AA0A7E007FB9
:103190000122909CDDEBF0A3EAF0A3E9F0909D0BF7
:1031A0007401F0A3749CF0A374E3F0E490AC92F08B
:1031B000909CDDE0FBA3E0FAA3E0F9128E840232DA
:1031C000C5909CE0E0FBA3E0FAA3E0F9121534708F
:1031D00003023536909CE0A3E475F0011215D6A9E0
:1031E000F0FA1215341218BF32D34C343950324A27
:1031F0006332786833056932A66C32076F333370F7
:10320000322C72000031C1909D0BE0FBA3E475F0FD
:10321000021215D6A9F0FA1215ECFD909CDDE0FB28
:10322000A3E0FAA3E0F9129F290232C5909D0BE0BA
:10323000FBA3E475F0021215D6A9F0FA1215EC44BE
:1032400080FD909CDD12A2E5807B909D0BE0FBA3AE
:10325000E475F0031215D6A9F0FA121850909D23C8
:10326000EBF0A3EAF0A3E9F0909CDDE0FBA3E0FA29
:10327000A3E0F9129D25804D909D0BE0FBA3E47522
:10328000F0031215D6A9F0FA121850909D2CEBF00D
:10329000A3EAF0A3E9F0909CDDE0FBA3E0FAA3E051
:1032A000F912832F801F909D0BE0FBA3E475F003C0
:1032B0001215D6A9F0FA121850909D2CEBF0A3EA43
:1032C000F0E912643A909CDDEBF0A3EAF0A3E9F098
:1032D0000231C112642E909CDDEBF0A3EAF0A3E969
:1032E000F0909D17E0FCA3E0FDA3E0FEA3E0FF90BB
:1032F0009D0BE0FBA3E475F0031215D6A9F0FA12BA
:10330000185002343312642E909CDDEBF0A3EAF0E7
:10331000A3E9F0909D17A3A3E0FEA3E0FF909D0B0F
:10332000E0FBA3E475F0031215D6A9F0FA121850C9
:1033300002352D909D0BE0FBA3E475F0031215D62A
:10334000A9F0FA121850909D0EEBF0A3EAF0A3E951
:10335000F0909D0BE0FBA3E475F0031215D6A9F0E5
:10336000FA121850909D11EBF0A3EAF0A3E9F09047
:103370009CDDE0F9A3E0FAA3E0909D14C9F0A3EA74
:10338000F0A3E9F0909D23E4F0A3F0A3F0A304F0F0
:10339000A3749DF0A37417F0909CDDE0FBA3A3E061
:1033A000F9127EFD909CDDEBF0A3EAF0A3E9F0902A
:1033B0009D14E0FBA3E0FAA3E02406F9E43AFAC086
:1033C00003C002C001909CDDE0FBA3E0FAA3E0F99A
:1033D000D082D083D0E06B7008E965827003EA6523
:1033E000837005FBFAF98010909D14E0FBA3E0FACE
:1033F000A3E02406F9E43AFAC003C002C001909D9C
:103400000EE0FBA3E0FAA3E0F9121870909D11E022
:10341000FBA3E0FAA3E0F9EA494B70030231C19043
:103420009D17E0FCA3E0FDA3E0FEA3E0FF909D114B
:10343000A3A3E01217CD0231C1909D0BE0FBA3E4E2
:1034400075F0031215D6A9F0FA121850909D0EEBE4
:10345000F0A3EAF0A3E9F0909D0BE0FBA3E475F084
:10346000031215D6A9F0FA121850909D1DEBF0A387
:10347000EAF0A3E9F0909CDDE0F9A3E0FAA3E09084
:103480009D14C9F0A3EAF0A3E9F0909D23E4F0A312
:10349000F0A3F0A304F0A3749DF0A3741BF0909C20
:1034A000DDE0FBA3A3E0F9127E40909CDDEBF0A3EE
:1034B000EAF0A3E9F0909D14E0FBA3E0FAA3E02476
:1034C00004F9E43AFAC003C002C001909CDDE0FBBD
:1034D000A3E0FAA3E0F9D082D083D0E06B7008E9D2
:1034E00065827003EA65837005FBFAF98010909D90
:1034F00014E0FBA3E0FAA3E02404F9E43AFAC003E1
:10350000C002C001909D0EE0FBA3E0FAA3E0F91217
:103510001870909D1DE0FBA3E0FAA3E0F9EA494B87
:1035200070030231C1909D1BE0FEA3E0FFEE8FF01F
:1035300012164F0231C1909CDDE0FBA3E0FAA3E03C
:10354000F91296D090AC92E0FF7E0022E522244B47
:10355000F582E4349DF583E0052222909D483007F2
:1035600003909D4BE475F001121DF002153420000C
:10357000E97F2ED2008018EF540F2490D43440D429
:10358000FF30040BEF24BFB41A0050032461FFE5A1
:1035900023600215230526E5267002052530070E57
:1035A000909D48E475F001121DF0EF02157A02AD0E
:1035B000BD7403D2078003E4C207F522909D481230
:1035C0001E1EE4F523F525F526E52360077F20126E
:1035D000358F80F57524FFC201C200C202C203C24A
:1035E00005C206C20812355BFF700D3007057F006B
:1035F0001235A0AF26AE2522B4255FC2D5C2041273
:10360000355BFF24D0B40A00501A75F00A782330D5
:10361000D50508B6FF0106C6A426F620D50470021B
:10362000D20380D924CFB41A00EF5004C2E5D204EB
:103630000237A1D20180C6D20080C0D20280BCD2A3
:10364000D580BAD20580B47F2012358F200207744E
:1036500001B5230040F112354CFF12358F0235C9F8
:10366000D208D206809512354CFB12354CFA123531
:103670004CF94A4B700679727A387BFF20022EE5AE
:1036800023602A7E008E8275830012154D60060E1F
:10369000EE652470F0C2D5EBC0E0EAC0E0E9C0E01E
:1036A000EE1237E8D0E0F9D0E0FAD0E0FB121534A2
:1036B000FF60AAEBC0E0EAC0E0E9C0E012358FD0BD
:1036C000E02401F9D0E03400FAD0E0FBE524046006
:1036D000DCD524D980877BFF7A3779E4D202809CBD
:1036E000791080027908C206C2088008D2D5790A0A
:1036F0008004790AC2D5E524047002F524E4FAFDB9
:10370000FEFF12354CFC7B0820011312354CFD7B6B
:103710001030000A12354CFE12354CFF7B20EC3382
:1037200082D592D55013C3E43000069FFFE49EFE7D
:10373000E42001039DFDE49CFCE4CBF8C201EC70A5
:103740000CCFCECDCCE824F8F870F38017C3EF335C
:10375000FFEE33FEED33FDEC33FCEB33FB9940021F
:10376000FB0FD8E9EB300105F8D0E0C448B201C046
:10377000E00AEC4D4E4F78207B0070C2EAB5240081
:1037800040BCC0E01237EAD0F0D0E0200104C4C051
:10379000E0C4B201C0F0123578D0F0D5F0EB0235BC
:1037A000C91218BF36665336E05836374C363342A6
:1037B00036E44F36EC4436EC49364C4336F2553657
:1037C000D64636D64536D647389250363B2D363F0C
:1037D0002E36622B364323366020387B2A35FB4851
:1037E0000000365A3F3F3F00790AA2D5200314302B
:1037F0000509B910020404B9080104A2D520060283
:103800005001042002689202B523005034C0E07FCA
:10381000203003197F30A20272067205500F123851
:1038200041C202C206C205C2087F30800F300503C4
:10383000E9C0E012358F300503D0E0F9D0E0B523C0
:10384000CC3005177F30B9100C12358F7F583004FB
:10385000077F788003B9080312358F3002057F2D6A
:1038600002358F7F202008F87F2B2006F32292025A
:1038700080CF286E756C6C2900D20112354C300156
:10388000F8C201782330D50108F60235FB2D5043EC
:10389000495812354C2403B405004001E490388D9A
:1038A00093123580743A123580D2037523040236A0
:1038B000E0909C9EEBF0A3EAF0A3E9F012AD9E78B5
:1038C000AA7C9C7D017E007FBC12150E909CAC747E
:1038D00001F0909C9EE0F9A3E0FAA3E0A3C9F0A355
:1038E000EAF0A3E9F0E49059FAF0909D697401F0D0
:1038F000A3749CF0A374A4F0A37401F0A3749CF0CF
:10390000A374A7F0909CA1E0FBA3E0FAA3E0F91256
:103910006E0A909CA1EBF0A3EAF0A3E9F0A3E0FB10
:10392000A3E0FAA3E0F91215347003023BD5909C92
:10393000A7E0FBA3E0FAA3E0F91215347003023B01
:10394000D5909CA4E0FBA3E0FAA3E0F8AC02AD03A1
:103950007BFF7A597943121A69EF7031909D69049F
:10396000F0A3749CF0A374B3F0909CA7E0FBA3E0D9
:10397000FAA3E0F9125559EF4E6003023BD578FAED
:103980007C797D017BFF7A597947023BFE909CA4AC
:10399000E0FBA3E0FAA3E0F8AC02AD037BFF7A59A9
:1039A0007959121A69EF7031909D6904F0A3749CE3
:1039B000F0A374BBF0909CA7E0FBA3E0FAA3E0F9AE
:1039C000125559EF4E6003023BD578FA7C797D01A0
:1039D0007BFF7A59795E023BFE909CA4E0FBA3E05A
:1039E000FAA3E0F8AC02AD037BFF7A597971121AA1
:1039F00069EF7031909D6904F0A3749CF0A374B7D3
:103A0000F0909CA7E0FBA3E0FAA3E0F9125559EF70
:103A10004E6003023BD578FA7C797D017BFF7A59B1
:103A20007974023BFE909CA4E0FBA3E0FAA3E0F8CB
:103A3000AC02AD037BFF7A597989121A69EF7031B4
:103A4000909D6904F0A3749CF0A374BFF0909CA7B0
:103A5000E0FBA3E0FAA3E0F9125559EF4E60030230
:103A60003BD578FA7C797D017BFF7A59798D023BD1
:103A7000FE909CA4E0FBA3E0FAA3E0F8AC02AD0347
:103A80007BFF7A59799C121A69EF7031909D690415
:103A9000F0A3749CF0A374ADF0909CA7E0FBA3E0AE
:103AA000FAA3E0F91277D0EF4E6003023BD578FA23
:103AB0007C797D017BFF7A5979A3023BFE909CA41F
:103AC000E0FBA3E0FAA3E0F8AC02AD037BFF7A5978
:103AD00079B7121A69EF7022909CA7E0FBA3E0FA75
:103AE000A3E0F8AC02AD037BFF7A5979BE121A69E4
:103AF000EF7007909CACF0023BD5909CA4E0FBA338
:103B0000E0FAA3E0F8AC02AD037BFF7A5979C11269
:103B10001A69EF7029909D65F0909CA7E0F9A3E0E9
:103B2000FAA3E090A10CC9F0A3EAF0A3E9F0A3E4A2
:103B3000F0A37420F07B017A9D7945023BC2909CF2
:103B4000A4E0FBA3E0FAA3E0F8AC02AD037BFF7AAC
:103B50005979C7121A69EF7028909D03F0909CA7BD
:103B6000E0F9A3E0FAA3E090A10CC9F0A3EAF0A366
:103B7000E9F0A3E4F0A37440F07B017A9C79C38060
:103B800041909CA4E0FBA3E0FAA3E0F8AC02AD03F3
:103B90007BFF7A5979D0121A69EF702B909D44F00F
:103BA000909CA7E0F9A3E0FAA3E090A10CC9F0A3D0
:103BB000EAF0A3E9F0A3E4F0A37440F07B017A9D5E
:103BC0007904129473800E78FA7C797D017BFF7AF8
:103BD0005979D98029909CA1E0FBA3E0FAA3E04A9F
:103BE0004B60030238EA7B017A9C79AA12AD761207
:103BF000A35A78FA7C797D017BFF7A5979FC121BF4
:103C00005222E52230030104F8232824A1F582E49E
:103C1000349CF58322909C9E300303909CA1E47514
:103C2000F001121DF002153460EAC5267002152558
:103C300014C526200304FF02AD96909C9E74FFF5E8
:103C4000F0021E07FF02ACB4E5236006D523037F14
:103C5000002220030F12ACA0EF60080526E52670B5
:103C600002052522909C9E121DE7121534FF60E884
:103C7000909C9EE475F001121DF080DC123C52EF26
:103C8000C0E0123C44D0E040F3809DD2038002C2E9
:103C900003909C9E121E1EE4F524F522F525F526C0
:103CA000752300C202C200C201C204123C15FF709B
:103CB00005AF247E0022B42530123C15FF24D0B479
:103CC0000A00500C75F00AC523A42523F52380E9CA
:103CD00024CFB41A00EF5002C2E5023EF0D20180B8
:103CE000D8D20080D4D20480D0EF123C44500812C5
:103CF0003C7CEF600E80A9EFC0E0123C52D0E06F38
:103D0000609EEF6074123C2880A7123C52EF6069FD
:103D1000E523700705238003123C52EF6014200452
:103D20000E123C02E475F001121DF0EF12157AD567
:103D300023E62004040522052480BA123C48EFC083
:103D4000E0123C44D0E05004123C28E4FF20040E72
:103D5000123C02E475F001121DF0EF12157AEF70BB
:103D6000DA20040405220524808BE5236002052364
:103D7000123C7C123C48EF70C6300304E4123C282D
:103D8000E5246003023CB17EFF7FFF222004117412
:103D9000FFFCFDFEFF123C02121DE71217CD0522AB
:103DA000023CA0D0E080D27900800A7910800679A8
:103DB000088002790AD205E52360020523E9C0E004
:103DC000123C7CEF60DD123C52BF2D04D202800316
:103DD000BF2B09123C7CEF60CA123C48D0E0B40A09
:103DE000028033B40802802EBF302770027408C2EC
:103DF00005C0E0123C48D0E0BF78028003BF5816EF
:103E00000523D523028007D52304D205800B741027
:103E100080197002740ABF000AEFF8E4FCFDFEFF8F
:103E2000023EA3C0E0EF123C28D0E0F9E4FCFDFE26
:103E3000FFE9C0E0ECC0E0EDC0E0EEC0E0EFC0E0C4
:103E4000123C48EFF8D0E0FFD0E0FED0E0FDD0E03B
:103E5000FCD0F0E8604DB461004007B47B00500234
:103E6000C2E524D0503DFA24F6500724F9503424FA
:103E70000AFAEAB5F000502BCFA9F0A42FFF92D593
:103E8000E9C5F0CEA4A2D53EFE92D5E9C5F0CDA4F9
:103E9000A2D53DFD92D5E9C5F0CCA4A2D53CFCC28B
:103EA00005808EE8C0E020042A20050805243002A1
:103EB00003121D45123C02121DE7052220000B20B3
:103EC000010DEE8FF012164F80091217CD8004EF0E
:103ED00012157AD0E0123C28023CA0200410123CBB
:103EE00002121DE70522E5258526F012164F80E80F
:103EF0001218BF3D6A533DAB583CE14C3CDD423C9F
:103F0000B9483DAF4F3DB3443D0A433DA7493DB39A
:103F1000553D8C463D8C453D8C473CE52A3EDB4E6D
:103F200000003CE9909B8DEFF0E4909B92F0A3F0B1
:103F30007E027F24FD7B017AA57962121D1990A56E
:103F4000627401F0A3F0A37406F0E4A3F090A55E00
:103F5000E0FCA3E0FDA3E0FEA3E0FF90A56612183D
:103F600007E490A56AF0A3F0A37480F0A3E4F01234
:103F7000AD9EE92403F9E43AFA787E7CA57D017EC2
:103F8000007F0612150E909B92E475F0011215D673
:103F9000FE744E25F0F58274A63EF5837463F090AE
:103FA0009B92E475F0011215D6FE744E25F0F58251
:103FB00074A63EF5837482F0909B92E475F0011232
:103FC00015D6FE744E25F0F58274A63EF583745323
:103FD000F0909B92E475F0011215D6FE744E25F018
:103FE000F58274A63EF5837463F0909B92E475F0BD
:103FF000011215D6FE744E25F0F58274A63EF583A7
:104000007435F0909B92E475F0011215D6FE744E53
:1040100025F0F58274A63EF5837401F0909B92E43E
:1040200075F0011215D6FE744E25F0F58274A63E89
:10403000F5837401F0909B92E475F0011215D6FEA1
:10404000744E25F0F58274A63EF583743DF0909B86
:1040500092E475F0011215D6FE744E25F0F58274C7
:10406000A63EF5837407F0909B92E475F00112155B
:10407000D6FE744E25F0F58274A63EF5837401F0E9
:1040800012AD9EE92403F9E43AFAC001909B92E054
:10409000FEA3E0244EF974A63EA801FC7D01D001E8
:1040A0007E007F0612150E909B93E02406F0909BF5
:1040B00092E03400F0E475F0011215D6FE744E253E
:1040C000F0F58274A63EF583740CF0909B92E47533
:1040D000F0011215D6FE744E25F0F58274A63EF559
:1040E00083740EF0909B92E0FEA3E0244EF974A638
:1040F0003EA801FC7D017B017AA579467E007F0EFA
:1041000012150E909B93E0240EF0909B92E03400E9
:10411000F0E475F0011215D6FE744E25F0F58274A8
:10412000A63EF5837437F0909B92E475F00112156A
:10413000D6FE744E25F0F58274A63EF5837405F024
:10414000909B92E475F0011215D6FE744E25F0F5A1
:104150008274A63EF5837401F0909B92E475F001A1
:104160001215D6FE744E25F0F58274A63EF58374C2
:1041700003F0909B92E475F0011215D6FE744E2563
:10418000F0F58274A63EF5837406F0909B92E47578
:10419000F0011215D6FE744E25F0F58274A63EF598
:1041A00083743AF0909B92E475F0011215D6FE7478
:1041B0004E25F0F58274A63EF583743BF0909B92F9
:1041C000E475F0011215D6FE744E25F0F58274A642
:1041D0003EF58374FFF090A78FE4F0A37443F07E64
:1041E000007F047DFF7B017A9B798E121D19909BC5
:1041F0008DE0FF909CFA7402F0A37428F0A3740180
:10420000F0A3749BF0A3748EF090A78FE0FDA3E061
:10421000909CFFCDF0A3EDF074FFA3F0A3F07B0121
:104220007AA579620265B9E4FFFE12A678D3EF940D
:1042300000EE9400400EAD07AC06E4FF124A539026
:104240009B8CEFF090A531E024FE605D14700302BA
:10425000438E14700302445A240360030245039002
:104260009B8CE06402703FFDFF1225B190A5317474
:1042700002F07BFF7A9E7916E0FF909D4BE4F0A35D
:10428000EFF01235B790A78AE090A530F090A7899B
:10429000E090A52FF090A788E090A52EF090A7873A
:1042A000E090A52DF022024500909B8CE064057003
:1042B00062126F3778257CA57D017B017AA779870B
:1042C0007E007F0412150E12AD9EE92409F9E43A2E
:1042D000FA785A7CA57D017E007F0412150E90A508
:1042E000317403F090A78B1218130000000090A700
:1042F0008BE0FCA3E0FDA3E0FEA3E02405FFE43E89
:10430000FEE43DFDE43CFC90A556121807E490A5A0
:1043100054F022909B8CE06406707090A78AE0FFB6
:1043200090A530E06F600302450390A789E0FF90FD
:10433000A52FE06F600302450390A788E0FF90A5DA
:104340002EE06F600302450390A787E0FF90A52D44
:10435000E06F600302450390A78B12181300000062
:104360000090A78BE0FCA3E0FDA3E0FEA3E0240502
:10437000FFE43EFEE43DFDE43CFC90A55612180728
:10438000E490A554F090A53104F02202450074FF9A
:10439000FFFEFDFC90A529E0F8A3E0F9A3E0FAA355
:1043A000E0FBC31217767003024503E47B02FAF9BF
:1043B000F890A529E0FCA3E0FDA3E0FEA3E0FF1236
:1043C00016D790A78BE0F8A3E0F9A3E0FAA3E0FBEF
:1043D000D31217765003024503E4909B8CF012AD84
:1043E0009EE92409F9E43AFA78427CA57D017E0031
:1043F0007F0412150EE4909CFAF07B44FAFDFF1244
:10440000812ABF01F090A55EE0FCA3E0FDA3E0FEE1
:10441000A3E02401FFE43EFEE43DFDE43CFC90A566
:104420005E1218077D01E4FF1225B190A5317404D6
:10443000F090A78B1218130000000090A78BE0FCEF
:10444000A3E0FDA3E0FEA3E02405FFE43EFEE43D7F
:10445000FDE43CFC90A556021807909B8CE0640597
:10446000705B90A554F012AD9EE92409F9E43AFA84
:1044700078427CA57D017E007F04121CF5EF600D63
:1044800090A78B12181300000000126F3790A78BB3
:104490001218130000000090A78BE0FCA3E0FDA31E
:1044A000E0FEA3E02405FFE43EFEE43DFDE43CFC29
:1044B00090A55612180790A5317403F022909B8C9A
:1044C000E0B4063C90A78B1218130000000090A7E0
:1044D0008BE0FCA3E0FDA3E0FEA3E02405FFE43EA7
:1044E000FEE43DFDE43CFC90A556121807E490A5BF
:1044F00054F090A53104F07BFF7A9E792C0235B7F9
:1045000012724F22909CF6EBF0A3EAF0A3E9F0A31D
:10451000A3E0FAA3E0FF909D01EAF0A3EFF07E0094
:104520007F117D00909CF6E0FBA3E0FAA3E0F91276
:104530001D19909D01E0FEA3E0AA06F97B0112A0DF
:1045400042909CF6E0FBA3E0FAA3E0F9EE8FF012B4
:10455000164F909D02E0240212A036AD07AC06EC87
:1045600030E713909CF6E0FBA3E0FAA3E0F990009B
:1045700002740112158CEC131313540FFF909CF668
:10458000E0FBA3E0FAA3E0F9900003EF12158CEC36
:1045900030E208900004740112158CEC30E10890B0
:1045A0000005740112158CEC30E0089000067401CF
:1045B00012158CED30E708900007740112158CED90
:1045C000540F90000812158C909D02E0240412A054
:1045D00036909CF6E0FBA3E0FAA3E0F9900009EE28
:1045E0008FF012166E909D02E0240612A036909C69
:1045F000F6E0FBA3E0FAA3E0F990000BEE8FF012D7
:10460000166E909D02E0240812A036909CF6E0FB06
:10461000A3E0FAA3E0F990000DEE8FF012166E9071
:104620009D02E0240A12A036909CF6E0FBA3E0FA7B
:10463000A3E0F990000FEE8FF012166E909D02E04D
:10464000240CFE909D01E03400909D03F0A3CEF079
:10465000E4909CFFF0A3F0909CF6E0FBA3E0FAA3AB
:10466000E0F9900009121617FFC3909D00E09F909B
:104670009CFFE095F05048909D01E0FEA3E0AA0663
:10468000F97B01C003C002C001A3E0FEA3E0AA06BB
:10469000F9909D08EBF0A3EAF0A3E9F0D001D00275
:1046A000D00312933AAF01909D03EAF0A3EFF0908C
:1046B0009D00E004F070A0909CFFE004F08098E47E
:1046C000909CFFF0A3F0909CF6E0FBA3E0FAA3E03F
:1046D000F990000B121617FFC3909D00E09F909C6D
:1046E000FFE095F0505D909D01E0FEA3E0AA06F981
:1046F0007B01C003C002C001A3E0FEA3E0AA06F94B
:10470000909D08EBF0A3EAF0A3E9F0909CFCE0F99F
:10471000A3E0FAA3E0909D0BC9F0A3EAF0A3E9F0AF
:10472000D001D002D003124F0CAF01909D03EAF0EC
:10473000A3EFF0909D00E004F0708B909CFFE004EC
:10474000F08083E4909CFFF0A3F0909CF6E0FBA344
:10475000E0FAA3E0F990000D121617FFC3909D0038
:10476000E09F909CFFE095F0500EA3E004F070DA1B
:10477000909CFFE004F080D2E4909CFFF0A3F090C6
:104780009CF6E0FBA3E0FAA3E0F990000F121617E5
:10479000FFC3909D00E09F909CFFE095F0500EA31A
:1047A000E004F070DA909CFFE004F080D290000802
:1047B00012154D7F0070027F0122909CF6EFF0A34E
:1047C000EBF0A3EAF0A3E9F0E4909D0AF0A3F0A3D4
:1047D000F0A3F0D3909CFBE09400909CFAE094004E
:1047E0005003024A4A909CF6E0FEE42428FFEE348F
:1047F00040FE12A94A909D0CEEF0A3EFF0909CF6BB
:10480000E0FEE42400FFEE3440FE12A5F9EF540769
:1048100024FD70030248D51470030249AA240260E3
:1048200003024A40909CF6E0FF909D0CE0FCA3E060
:10483000FD7A9D7B02909D13E4F0A37408F0126250
:1048400078909D0CEEF0A3EFF0909D02E0FF909C1D
:10485000FCE0FBA3E0FAA3E0F9EF12157A909D03C8
:10486000E0FF909CFCE0FBA3E0FAA3E0F9900001DC
:10487000EF12158C909D04E090000212158C909D13
:1048800005E090000312158C909D06E0FEA3E07CED
:10489000002400FFEC3EF9909CFFE0FBA3E0FAA3AC
:1048A000E0C98FF012164F909D08E0FEA3E02400AF
:1048B000FFEC3EFEA3F0A3EFF0909CFAE0FCA3E037
:1048C000FDC39FEC9E4003024965909D0AECF0A356
:1048D000EDF0024965909CF6E0FF909D0CE0FCA392
:1048E000E0FD7A9D7B02909D13E4F0A37406F01224
:1048F0006278909D0CEEF0A3EFF0909D02E0FF90A7
:104900009CFCE0FBA3E0FAA3E0F9EF12157A909D7E
:1049100003E0FF909CFCE0FBA3E0FAA3E0F9900029
:1049200001EF12158C909D04E090000212158C90FE
:104930009D05E090000312158C909D06E0FEA3E01B
:104940007C002400FFEC3EFE909D0AF0A3EFF09067
:104950009CFAE0FCA3E0FDC39FEC9E5008909D0AEA
:10496000ECF0A3EDF0909D0CE0FCA3E0FD909CF733
:10497000A3E0FAA3E0FB909D0AE0FFA3E0909D1363
:10498000CFF0A3EFF0909CF6E0FF126278909D0CC0
:10499000EEF0FCA3EFF0FD909CF6E0FEE42428FF8F
:1049A000EE3440FE12A61E024A40909CF6E0FF90B4
:1049B0009D0CE0FCA3E0FD7A9D7B02909D13E4F04A
:1049C000A37402F0126278909D0CEEF0FCA3EFF05D
:1049D000FD909D02E0FEA3E07A002400FFEA3ECFB6
:1049E00024FECF34FF909D0AF0A3EFF0909CF7A334
:1049F000E0FAA3E0FB909D0AE0FFA3E0909D13CFB7
:104A0000F0A3EFF0909CF6E0FF126278909D0CEE20
:104A1000F0FCA3EFF0FD909CF6E0FEE42428FFEE0E
:104A20003440FE12A61E909CFAE0FEA3E0FFD39055
:104A30009D0BE09F909D0AE09E4005EEF0A3EFF0F5
:104A4000909CF6E0FF7D4012A96A909D0AE0FEA3CB
:104A5000E0FF22E4909B93F0A3F0909CFAECF0A38B
:104A6000EDF0A37401F0A3749BF0A3748DF0A37414
:104A700001F0A3749BF0A37491F07B017AA5796295
:104A80001247BA909B93EEF0A3EFF0909B91E070E9
:104A900004A3E06443706612AD9EE92403F9E43A8E
:104AA000FA787E7CA57D017E007F06121CF5EF6002
:104AB000037F002278877CA77D017B017AA5797628
:104AC0007E007F0412150E12AD9EE92409F9E43A26
:104AD000A801FCAD037B017AA579727E007F0412E8
:104AE000150E12AD9EE92411F9E43AA801FCAD03BC
:104AF0007B017AA5797A7E007F0412150EE4909BE3
:104B000095F0909B9774A5F0A37462F0E024F0F008
:104B1000909B97E03400F0909B94E02410FF909BD2
:104B200093E034FFFE909B98E02FFF909B97E03E30
:104B3000909B99F0A3EFF0909B99E0FEA3E0FFC358
:104B4000909B98E09F909B97E09E4003024CCAE4A4
:104B500075F0011215D685F082F583E060291460A6
:104B60004F24FE607724FD7003024C0824D37003A9
:104B7000024C4224FE6014147003024C742437600B
:104B800003024CA1024CCAE4024CB1909B97E4751D
:104B9000F0011215D685F082F583E0909B96F0A384
:104BA000E0FEA3E0F5828E83E0909B95F0024CB589
:104BB000909B97E475F0011215D685F082F583E09D
:104BC000909B96F0A3E0FEA3E0AA06F97B01C00348
:104BD000C002C00112AD9EE9240D8056909B97E45F
:104BE00075F0011215D685F082F583E0909B96F062
:104BF000A3E0FEA3E0AA06F97B01C003C002C00146
:104C000012AD9EE92411802A909B97E475F0011261
:104C100015D685F082F583E0909B96F0A3E0FEA385
:104C2000E0AA06F97B01C003C002C00112AD9EE9F3
:104C30002415F9E43AA801FCAD03D001D002D00359
:104C40008056909B97E475F0011215D685F082F599
:104C500083E0909B96F0A3E0FEA3E0AA06F97B0117
:104C6000C002C00178297CA57D01D001D0027E0060
:104C70007F048028909B97E475F0011215D685F08B
:104C800082F583E0909B96F0A3E0FEA3E0AA06F9EC
:104C90007B0178877CA77D017E007F0412150E8042
:104CA00014909B97E475F0011215D685F082F58378
:104CB000E0909B96F0909B96E0FF909B98E02FF001
:104CC000909B97E03400F0024B37909B95E0FF22D9
:104CD000909CD1EBF0A3EAF0A3E9F0909CFF740163
:104CE000F0A3749CF0A374D7F0909CD1E0FBA3E0F8
:104CF000FAA3E0F912985B024EF0909CD4E0FBA37B
:104D0000E0FAA3E0F91215347003024EFE909CD431
:104D1000A3E475F0011215D6A9F0FA121534121891
:104D2000BF4E094C4E7F504D92634DB7684DE169BF
:104D30004E036C4D406F4E0F704D657200004CFA83
:104D4000909CFFE0FBA3E475F0021215D6A9F0FADF
:104D50001215ECFD909CD1E0FBA3E0FAA3E0F91260
:104D6000A0F7024EF0909CFFE0FBA3E475F0021266
:104D700015D6A9F0FA1215EC4480FF909CD1E0FB07
:104D8000A3E475F0011215D6A9F0FAEF12157A0214
:104D90004CFA909CFFE0FBA3E475F0021215D6A933
:104DA000F0FA1215ECFD909CD1E0FBA3E0FAA3E031
:104DB000F912A0B7024EF0909CFFE0FBA3E475F05F
:104DC000021215D6A9F0FA1215ECFFAEF0FDAC06F2
:104DD000909CD1E0FBA3E0FAA3E0F9129AE2024E24
:104DE000F0909CFFE0FBA3E475F0021215D6A9F049
:104DF000FA1215ECFFAEF0EE3395E0FDFC127628CA
:104E0000024EF0127615024EF0127615024EF09018
:104E10009CFFE0FBA3E475F0031215D6A9F0FA128B
:104E20001850909D02EBF0A3EAF0A3E9F0909CFFEC
:104E3000E0FBA3E475F0041215D6A9F0FA1217AD41
:104E4000909D05121807909D02E0F9A3E0FAA3E0F7
:104E5000909D0CC9F0A3EAF0A3E9F0909D05E0FC59
:104E6000A3E0FDA3E0FEA3E0FF909D0F12180790C2
:104E70009CD1E0FBA3E0FAA3E0F91285B380719026
:104E80009CFFE0FBA3E475F0031215D6A9F0FA121B
:104E90001850909D02EBF0A3EAF0A3E9F0909CFF7C
:104EA000E0FBA3E475F0021215D6A9F0FA1215EC96
:104EB000FFAEF0E4FCFD909D05121807909D02E006
:104EC000F9A3E0FAA3E0909D0CC9F0A3EAF0A3E9EE
:104ED000F0909D05A3A3E0FFA3E0909D0FCFF0A36A
:104EE000EFF0909CD1E0FBA3E0FAA3E0F912887DFB
:104EF000909CD1EBF0A3EAF0A3E9F0024CFA909C6D
:104F0000D1E0FBA3E0FAA3E0F9028475909D05EBE4
:104F1000F0A3EAF0A3E9F0C002C001A3E0F9A3E026
:104F2000FAA3E090A111C9F0A3EAF0A3E9F0A374F9
:104F300001F0A3749DF0A3740EF0A37404F0A3E435
:104F4000F0D001D00212538BAD07AC06BCFF06BDFA
:104F5000FF030250F7909D09EC8DF01215C0909D53
:104F600008E0FBA3E0FAA3E0F912A042909D09E457
:104F700075F0021215C0909D09E475F0021215C07B
:104F8000909D09E475F0041215C0909D09E475F038
:104F9000021215C0EE600302513BEF14B40F004043
:104FA0000302513B904FB275F003A4C58325F0C5B1
:104FB0008373024FDF02507702513B02513B025094
:104FC000770250D802507702507702507702513B57
:104FD00002513B02507702508802513B0250BD9073
:104FE0009D08E0FBA3E475F0011215D6A9F0FA12B2
:104FF0001534FF909D0BE0FBA3E0FAA3E0F9EF125C
:10500000157A909D08E0FBA3E475F0011215D6A96E
:10501000F0FA121534FF909D0BE0FBA3E0FAA3E039
:10502000F9900001EF12158C909D08E0FBA3E47548
:10503000F0011215D6A9F0FA121534FF909D0BE07D
:10504000FBA3E0FAA3E0F9900002EF12158C909D0B
:1050500008E0FBA3E475F0011215D6A9F0FA1215C9
:1050600034FF909D0BE0FBA3E0FAA3E0F99000036E
:10507000EF12158C02513B125358AC06AD07BCFF22
:1050800005BDFF0280718048909D08E0FBA3E47598
:10509000F0011215D6A9F0FA1215347C00FD909D8E
:1050A00009EC8DF01215C0909D08E0FBA3E475F0AB
:1050B000011215D6A9F0FA121534FD8013E475F02B
:1050C00002125352AC06AD07BCFF05BDFF0280279C
:1050D000909D09EC8DF08060125358AC06AD07BC72
:1050E000FF05BDFF028010EC8DF0125352AC06ADEF
:1050F00007BCFF0ABDFF077B007A00790022AF05DD
:10510000909D09EC8FF01215C0909D09E475F00494
:105110001215C0909D09E475F0041215C0909D0908
:10512000E475F0041215C0909D09E475F0041215A1
:10513000C0909D09E475F0041215C0909D08E0FB35
:10514000A3E0FAA3E0F922909C9EEBF0A3EAF0A37F
:10515000E9F0A3EDF07E207F007D007B017A597994
:10516000FA121D19909C9EE0F9A3E0FAA3E0909D2D
:1051700023C9F0A3EAF0A3E9F0909C9EE0FBA3A36F
:10518000E0F912AC63909D29EEF0A3EFF0909C9EA5
:10519000A3E0FAA3E0AE02FF909D23E0FBA3E0FAB8
:1051A000A3E0F9C39FFFEA9EFED3909D2AE09F9063
:1051B0009D29E09E5003025351121534700302538F
:1051C000517D2412AB03909D26EBF0A3EAF0A3E9F6
:1051D000F04A4B7005909D23801C909D26E0FBA318
:1051E000E0FAA3E0F912AC63C3EF9404EE64809498
:1051F00080501E909D26E0F9A3E0FAA3E0909D2F39
:10520000C9F0A3EAF0A3E9F07B017A5979FA029197
:10521000FC909D26E0FBA3E0FAA3E0F990000112C8
:10522000154DFF12AD3F40030252F4909D26E0FB66
:10523000A3E0FAA3E0F990000212154DFF12AD3F72
:1052400040030252F4909D26E0FBA3E0FAA3E0F9AC
:1052500090000312154D642460030252F490000183
:1052600012154D75F00AA4FF90000212154D2F245F
:10527000F0909D2BF0909CA1E0909D2B700DE0FF95
:105280007B017A9C79A21229C0800BE0FF7B017A16
:105290009C79A21297F9909D23E0F9A3E0FAA3E08C
:1052A000909D2FC9F0A3EAF0A3E9F0909D23A3A35A
:1052B000E0AE02FFA3A3E0FAA3E0C39FFFEA9E9043
:1052C0009D32F0A3EFF07B017A5979FA127BFA90C4
:1052D0009D2F7401F0A3749CF0A374A2F07B017A5B
:1052E0005979FA1291FC909D26E0FBA3E0FAA3E025
:1052F0002404804B909D23E0F9A3E0FAA3E0909D65
:105300002FC9F0A3EAF0A3E9F0909D23A3A3E0AE98
:1053100002FFA3A3E0FAA3E0C39FFFEA9ECF24010C
:10532000CF3400909D32F0A3EFF07B017A5979FAE7
:10533000127BFA909D26E0FBA3E0FAA3E02401F99A
:10534000E43AFA909D23EBF0A3EAF0A3E9F00251CE
:105350008D22909D091215C0909D08E0F9A3E0FAF6
:10536000A3E090A111C9F0A3EAF0A3E9F0A37401AE
:10537000F0A3749DF0A3740EF0A37404F0A3E4F002
:10538000909D05E0FBA3E0FAA3E0F990A10EEBF0FD
:10539000A3EAF0A3E9F0E490A11DF0A3F0A3F0A329
:1053A000F0A3F0A3F090A111A3E0FAA3E0FF90A175
:1053B0001BEAF0A3EFF090A11BE475F0011215D6E3
:1053C00085F082F583E0FF90A119E4F0A3EFF0905F
:1053D000A11FE0FEA3E0FF4E700E90A11EE004F0BE
:1053E000700690A11DE004F090A119A3E0FD54C047
:1053F00064C07060EF4E700E90A11EE004F0700665
:1054000090A11DE004F090A11FE4F0A304F0ED547E
:105410003FFE90A11BE0FCA3E0F5828C83E07C00C2
:105420002400FFEC3EFE90A10EA3E0FAA3E02FF9CA
:10543000EA3EAF0190A11BF0A3EFF090A11BE47531
:10544000F0011215D685F082F583E0FF90A119E4F2
:10545000F0A3EFF090A119E0FEA3E0FF4E7003026D
:105460005501EF2401FFE43EFEC390A118E09FFF29
:1054700090A117E09EFEF0A3EFF0C3EE940050055C
:105480007EFF7FFF2290A11FE07002A3E0701490C6
:10549000A119E0FEA3E0FF90A11EE02FF090A11D56
:1054A000E03EF090A11974FFF5F01215D645F060BA
:1054B0002790A11BE475F0011215D685F082F583C3
:1054C000E0FF90A114E0FBA3E475F0011215D6A94A
:1054D000F0FAEF12157A80CB90A114E0FBA3E475EB
:1054E000F0011215D6A9F0FA742E12157A90A122A5
:1054F000E004F060030253B690A121E004F00253EF
:10550000B690A121E07002A3E0702390A114E0FB0B
:10551000A3E475F0011215D6A9F0FA742E12157ACB
:1055200090A118E024FFF090A117E034FFF090A1C3
:1055300014E0FBA3E475F0011215D6A9F0FAE41209
:10554000157A90A118E024FFF090A117E034FFF045
:1055500090A11DE0FEA3E0FF22909D66EBF0A3EA80
:10556000F0A3E9F012AC63C3EF9407EE648094807B
:105570005004E4FEFF22909D6D7401F0E4909D6F55
:10558000F0909D6EF0909D70F0A3F0909D66E0FB12
:10559000A3E0FAA3E0F9121534FF12AD3F40030275
:1055A000573C909D66E0FBA3E0FAA3E0F912AC63E0
:1055B000EF24FFFFEE34FFFE909D66E0FBA3E0FAD0
:1055C000A3E0F98F828E8312154DFF12AD3F400389
:1055D00002573CE4909D6CF0909D66E0FBA3E0FADE
:1055E000A3E0F912AC63909D6CE0D39FEE6480F869
:1055F0007480984003025741A3E070030257419022
:105600009D66E0FBA3E0FAA3E0F912AC63909D6C09
:10561000E07C00B5072CECB50628909D70E0FEA359
:10562000E0FFD394FFEE9400400302572E909D6953
:10563000E0FBA3E0FAA3E0F9900003EF12158C025F
:105640005733909D66E0FBA3E0FAA3E0F9909D6CD0
:10565000E0F58275830012154DFF642E600812ADCF
:105660003F400302572E909D66E0FBA3E0FAA3E0C3
:10567000F9909D6CE0F58275830012154DFF12AD17
:105680003F504B909D6FE004F0B4040302572E90FE
:105690009D66E0FBA3E0FAA3E0F9909D6CE0F58243
:1056A00075830012154DFB3395E0FA909D70E0FE76
:1056B000A3E0FF7C007D0A1215AEEF2BFFEE3ACF80
:1056C00024D0CF34FF909D70F0A3EFF08065909DC3
:1056D0006CE024FFFFE434FFFE909D66E0FBA3E056
:1056E000FAA3E0F98F828E8312154DB42E02803E0C
:1056F000909D70E0FEA3E0FFD394FFEE9400400283
:10570000802C909D69E0FBA3E0FAA3E0F9909D6EE8
:10571000E0F582758300EF12158CE4909D70F0A384
:10572000F0909D6FF0909D6EE004F0B40405E4905D
:105730009D6DF0909D6CE004F00255D8E4909D6D55
:10574000F0909D6DE0FF7E0022909CF6EEF0A3EFBE
:10575000F0A3EBF0A3EAF0A3E9F0A3A3E0FAA3E03F
:10576000AE02FF909D00EEF0A3EFF090A124E004C4
:10577000F0700690A123E004F0AA06A9077B01902F
:10578000A123E0FCA3E0FD129CE4AE02AF01909DDA
:1057900000EEF0A3EFF0909CF7E07F00333333543A
:1057A000F84401FE7B017D00FC129CE4AE02AF01D7
:1057B000909D00EEF0A3EFF07B010D7C00129CE4C5
:1057C000AE02AF01909D00EEF0A3EFF07B011D1241
:1057D0009CE4129CD6129CD6AF01909D00EAF0A3E7
:1057E000EFF078077C9D0D909CF8E0FBA3E0FAA316
:1057F000E0F9121B527B017A9D7907909D04EBF032
:10580000A3EAF0A3E9F012AC6390A107EEF0A3EFD6
:10581000F0909D04E0FBA3E0FAA3E0F97D2E12AB2B
:1058200003AE02AF01909D02EEF0A3EFF04E601CBC
:10583000A3A3E0FAA3E0FF909D02E0FCA3E0C39FD6
:10584000FEEC9A909CFEF0A3CEF0800F90A107E0B2
:10585000FFA3E0909CFECFF0A3EFF0909CFEE0FE53
:10586000A3E0FFFDA3E475F0011215D685F082F5E3
:1058700083EDF0EF4E7003025904909D00E0FEA30B
:10588000E0AA06F97B01C002C001909D04E0F9A3E3
:10589000E0FAA3E090A10CC9F0A3EAF0A3E9F0902C
:1058A0009CFEE0FFA3E090A10FCFF0A3EFF0D001AA
:1058B000D002129473909CFEE0FEA3E0FF909D0145
:1058C000E02FF0909D00E03EF0909D02E07002A37A
:1058D000E07012909D0075F0011215D685F082F5EA
:1058E00083E4F0801FEF2401FFE43EFE909D058FCE
:1058F000F01215C0C390A108E09FF090A107E09EB0
:10590000F0025811909D00E0FEA3E0AA06F97B0189
:105910007D017C00129CE4129CD6AE02AF01909DEA
:1059200000EEF0A3EFF0909CFBA3E0FAA3E0FDC330
:10593000EF9DFFEE9AFE2225642E25642E25642E0F
:1059400025640073697000496E76616C6964207328
:105950006F75726365204950006777697000496E02
:1059600076616C696420676174657761792049505C
:1059700000736E00496E76616C6964206E657477A1
:105980006F726B206D61736B00646E7300496E768D
:10599000616C696420444E5320495000687761640B
:1059A000647200496E76616C6964204D41432061E8
:1059B00064647265737300697364686370006F6E0A
:1059C00000626E616D6500757365726E616D650074
:1059D00070617373776F726400496E76616C69648D
:1059E00020617267756D656E7420666F756E6420D8
:1059F000696E20434749206C69737400436F6E667B
:105A0000696775726174696F6E2075706461746521
:105A10006400636865636B6564006E6F7420617613
:105A200061696C61626C65003C6120687265663D0D
:105A300022687474703A2F2F25732F617070223E84
:105A4000687474703A2F2F25732F6170703C2F612A
:105A50003E004745542000504F53542000485454B2
:105A6000502F002F002F696E6465782E68746D6C5E
:105A7000002F696E6465782E68746D002F617070F8
:105A8000002F6D6F6F6E6C696768742E63676900B5
:105A90002F6170702E63676900417574686F726959
:105AA0007A6174696F6E3A204261736963200043C2
:105AB0006F6E74656E742D547970653A20617070E4
:105AC0006C69636174696F6E2F782D7777772D66B7
:105AD0006F726D2D75726C656E636F6465640043E3
